{
  "_format": "hh-sol-artifact-1",
  "contractName": "BuyMeACoffee",
  "sourceName": "contracts/BuyMeACoffe.sol",
  "abi": [
    {
      "inputs": [],
      "stateMutability": "nonpayable",
      "type": "constructor"
    },
    {
      "anonymous": false,
      "inputs": [
        {
          "indexed": true,
          "internalType": "address",
          "name": "from",
          "type": "address"
        },
        {
          "indexed": false,
          "internalType": "uint256",
          "name": "timestamp",
          "type": "uint256"
        },
        {
          "indexed": false,
          "internalType": "string",
          "name": "name",
          "type": "string"
        },
        {
          "indexed": false,
          "internalType": "string",
          "name": "message",
          "type": "string"
        }
      ],
      "name": "NewMemo",
      "type": "event"
    },
    {
      "inputs": [
        {
          "internalType": "string",
          "name": "_name",
          "type": "string"
        },
        {
          "internalType": "string",
          "name": "_message",
          "type": "string"
        }
      ],
      "name": "buyCoffee",
      "outputs": [],
      "stateMutability": "payable",
      "type": "function"
    },
    {
      "inputs": [],
      "name": "getMemos",
      "outputs": [
        {
          "components": [
            {
              "internalType": "address",
              "name": "from",
              "type": "address"
            },
            {
              "internalType": "uint256",
              "name": "timestamp",
              "type": "uint256"
            },
            {
              "internalType": "string",
              "name": "name",
              "type": "string"
            },
            {
              "internalType": "string",
              "name": "message",
              "type": "string"
            }
          ],
          "internalType": "struct BuyMeACoffee.Memo[]",
          "name": "",
          "type": "tuple[]"
        }
      ],
      "stateMutability": "view",
      "type": "function"
    }
  ],
  "bytecode": "0x608060405234801561001057600080fd5b50336000806101000a81548173ffffffffffffffffffffffffffffffffffffffff021916908373ffffffffffffffffffffffffffffffffffffffff160217905550610c51806100606000396000f3fe6080604052600436106100295760003560e01c8063204206e11461002e578063865c51721461004a575b600080fd5b61004860048036038101906100439190610594565b610075565b005b34801561005657600080fd5b5061005f610257565b60405161006c9190610811565b60405180910390f35b60003410156100b9576040517f08c379a00000000000000000000000000000000000000000000000000000000081526004016100b090610890565b60405180910390fd5b60008054906101000a900473ffffffffffffffffffffffffffffffffffffffff1673ffffffffffffffffffffffffffffffffffffffff166108fc349081150290604051600060405180830381858888f1935050505015801561011f573d6000803e3d6000fd5b50600160405180608001604052803373ffffffffffffffffffffffffffffffffffffffff16815260200142815260200184815260200183815250908060018154018082558091505060019003906000526020600020906004020160009091909190915060008201518160000160006101000a81548173ffffffffffffffffffffffffffffffffffffffff021916908373ffffffffffffffffffffffffffffffffffffffff1602179055506020820151816001015560408201518160020190816101e89190610abc565b5060608201518160030190816101fe9190610abc565b5050503373ffffffffffffffffffffffffffffffffffffffff167fc56140e05f516509ae28110e0f72e17558a7561630dad2647c3ae87d986e365c42848460405161024b93929190610bd6565b60405180910390a25050565b60606001805480602002602001604051908101604052809291908181526020016000905b8282101561043157838290600052602060002090600402016040518060800160405290816000820160009054906101000a900473ffffffffffffffffffffffffffffffffffffffff1673ffffffffffffffffffffffffffffffffffffffff1673ffffffffffffffffffffffffffffffffffffffff1681526020016001820154815260200160028201805461030e906108df565b80601f016020809104026020016040519081016040528092919081815260200182805461033a906108df565b80156103875780601f1061035c57610100808354040283529160200191610387565b820191906000526020600020905b81548152906001019060200180831161036a57829003601f168201915b505050505081526020016003820180546103a0906108df565b80601f01602080910402602001604051908101604052809291908181526020018280546103cc906108df565b80156104195780601f106103ee57610100808354040283529160200191610419565b820191906000526020600020905b8154815290600101906020018083116103fc57829003601f168201915b5050505050815250508152602001906001019061027b565b50505050905090565b6000604051905090565b600080fd5b600080fd5b600080fd5b600080fd5b6000601f19601f8301169050919050565b7f4e487b7100000000000000000000000000000000000000000000000000000000600052604160045260246000fd5b6104a182610458565b810181811067ffffffffffffffff821117156104c0576104bf610469565b5b80604052505050565b60006104d361043a565b90506104df8282610498565b919050565b600067ffffffffffffffff8211156104ff576104fe610469565b5b61050882610458565b9050602081019050919050565b82818337600083830152505050565b6000610537610532846104e4565b6104c9565b90508281526020810184848401111561055357610552610453565b5b61055e848285610515565b509392505050565b600082601f83011261057b5761057a61044e565b5b813561058b848260208601610524565b91505092915050565b600080604083850312156105ab576105aa610444565b5b600083013567ffffffffffffffff8111156105c9576105c8610449565b5b6105d585828601610566565b925050602083013567ffffffffffffffff8111156105f6576105f5610449565b5b61060285828601610566565b9150509250929050565b600081519050919050565b600082825260208201905092915050565b6000819050602082019050919050565b600073ffffffffffffffffffffffffffffffffffffffff82169050919050565b600061066382610638565b9050919050565b61067381610658565b82525050565b6000819050919050565b61068c81610679565b82525050565b600081519050919050565b600082825260208201905092915050565b60005b838110156106cc5780820151818401526020810190506106b1565b60008484015250505050565b60006106e382610692565b6106ed818561069d565b93506106fd8185602086016106ae565b61070681610458565b840191505092915050565b6000608083016000830151610729600086018261066a565b50602083015161073c6020860182610683565b506040830151848203604086015261075482826106d8565b9150506060830151848203606086015261076e82826106d8565b9150508091505092915050565b60006107878383610711565b905092915050565b6000602082019050919050565b60006107a78261060c565b6107b18185610617565b9350836020820285016107c385610628565b8060005b858110156107ff57848403895281516107e0858261077b565b94506107eb8361078f565b925060208a019950506001810190506107c7565b50829750879550505050505092915050565b6000602082019050818103600083015261082b818461079c565b905092915050565b600082825260208201905092915050565b7f596f75206e65656420746f2073656e64206174206c6561737420302045544800600082015250565b600061087a601f83610833565b915061088582610844565b602082019050919050565b600060208201905081810360008301526108a98161086d565b9050919050565b7f4e487b7100000000000000000000000000000000000000000000000000000000600052602260045260246000fd5b600060028204905060018216806108f757607f821691505b60208210810361090a576109096108b0565b5b50919050565b60008190508160005260206000209050919050565b60006020601f8301049050919050565b600082821b905092915050565b6000600883026109727fffffffffffffffffffffffffffffffffffffffffffffffffffffffffffffffff82610935565b61097c8683610935565b95508019841693508086168417925050509392505050565b6000819050919050565b60006109b96109b46109af84610679565b610994565b610679565b9050919050565b6000819050919050565b6109d38361099e565b6109e76109df826109c0565b848454610942565b825550505050565b600090565b6109fc6109ef565b610a078184846109ca565b505050565b5b81811015610a2b57610a206000826109f4565b600181019050610a0d565b5050565b601f821115610a7057610a4181610910565b610a4a84610925565b81016020851015610a59578190505b610a6d610a6585610925565b830182610a0c565b50505b505050565b600082821c905092915050565b6000610a9360001984600802610a75565b1980831691505092915050565b6000610aac8383610a82565b9150826002028217905092915050565b610ac582610692565b67ffffffffffffffff811115610ade57610add610469565b5b610ae882546108df565b610af3828285610a2f565b600060209050601f831160018114610b265760008415610b14578287015190505b610b1e8582610aa0565b865550610b86565b601f198416610b3486610910565b60005b82811015610b5c57848901518255600182019150602085019450602081019050610b37565b86831015610b795784890151610b75601f891682610a82565b8355505b6001600288020188555050505b505050505050565b610b9781610679565b82525050565b6000610ba882610692565b610bb28185610833565b9350610bc28185602086016106ae565b610bcb81610458565b840191505092915050565b6000606082019050610beb6000830186610b8e565b8181036020830152610bfd8185610b9d565b90508181036040830152610c118184610b9d565b905094935050505056fea264697066735822122082bf4bde24a992eb55388555efbf7d8fc7bd9614048e1954945663899c88d35e64736f6c63430008130033",
  "linkReferences": {},
  "deployedLinkReferences": {}
}